{
    "_format": "hh-sol-artifact-1",
    "contractName": "SimpleStaking",
    "sourceName": "contracts/SimpleStaking.sol",
    "abi": [
        {
            "inputs": [],
            "stateMutability": "nonpayable",
            "type": "constructor"
        },
        {
            "anonymous": false,
            "inputs": [
                {
                    "indexed": true,
                    "internalType": "address",
                    "name": "user",
                    "type": "address"
                },
                {
                    "indexed": false,
                    "internalType": "uint256",
                    "name": "reward",
                    "type": "uint256"
                }
            ],
            "name": "RewardsClaimed",
            "type": "event"
        },
        {
            "anonymous": false,
            "inputs": [
                {
                    "indexed": true,
                    "internalType": "address",
                    "name": "user",
                    "type": "address"
                },
                {
                    "indexed": false,
                    "internalType": "uint256",
                    "name": "amount",
                    "type": "uint256"
                }
            ],
            "name": "Staked",
            "type": "event"
        },
        {
            "anonymous": false,
            "inputs": [
                {
                    "indexed": true,
                    "internalType": "address",
                    "name": "user",
                    "type": "address"
                },
                {
                    "indexed": false,
                    "internalType": "uint256",
                    "name": "amount",
                    "type": "uint256"
                }
            ],
            "name": "Withdrawn",
            "type": "event"
        },
        {
            "inputs": [],
            "name": "STAKING_RATE",
            "outputs": [
                {
                    "internalType": "uint256",
                    "name": "",
                    "type": "uint256"
                }
            ],
            "stateMutability": "view",
            "type": "function"
        },
        {
            "inputs": [],
            "name": "claimRewards",
            "outputs": [],
            "stateMutability": "nonpayable",
            "type": "function"
        },
        {
            "inputs": [],
            "name": "fundContract",
            "outputs": [],
            "stateMutability": "payable",
            "type": "function"
        },
        {
            "inputs": [],
            "name": "getContractBalance",
            "outputs": [
                {
                    "internalType": "uint256",
                    "name": "",
                    "type": "uint256"
                }
            ],
            "stateMutability": "view",
            "type": "function"
        },
        {
            "inputs": [
                {
                    "internalType": "address",
                    "name": "_user",
                    "type": "address"
                }
            ],
            "name": "getStakeInfo",
            "outputs": [
                {
                    "internalType": "uint256",
                    "name": "stakedAmount",
                    "type": "uint256"
                },
                {
                    "internalType": "uint256",
                    "name": "pendingRewards",
                    "type": "uint256"
                }
            ],
            "stateMutability": "view",
            "type": "function"
        },
        {
            "inputs": [],
            "name": "owner",
            "outputs": [
                {
                    "internalType": "address",
                    "name": "",
                    "type": "address"
                }
            ],
            "stateMutability": "view",
            "type": "function"
        },
        {
            "inputs": [],
            "name": "stake",
            "outputs": [],
            "stateMutability": "payable",
            "type": "function"
        },
        {
            "inputs": [
                {
                    "internalType": "address",
                    "name": "",
                    "type": "address"
                }
            ],
            "name": "stakes",
            "outputs": [
                {
                    "internalType": "uint256",
                    "name": "stakedAmount",
                    "type": "uint256"
                },
                {
                    "internalType": "uint256",
                    "name": "lastUpdateTime",
                    "type": "uint256"
                }
            ],
            "stateMutability": "view",
            "type": "function"
        },
        {
            "inputs": [
                {
                    "internalType": "uint256",
                    "name": "_amount",
                    "type": "uint256"
                }
            ],
            "name": "withdraw",
            "outputs": [],
            "stateMutability": "nonpayable",
            "type": "function"
        }
    ],
    "bytecode": "0x6080604052348015600f57600080fd5b50336000806101000a81548173ffffffffffffffffffffffffffffffffffffffff021916908373ffffffffffffffffffffffffffffffffffffffff1602179055506110ec8061005f6000396000f3fe6080604052600436106100865760003560e01c80636f9fb98a116100595780636f9fb98a146101135780638da5cb5b1461013e57806394e81ce914610169578063bd097e2114610194578063c34531531461019e57610086565b806316934fc41461008b5780632e1a7d4d146100c9578063372500ab146100f25780633a4b66f114610109575b600080fd5b34801561009757600080fd5b506100b260048036038101906100ad9190610b25565b6101dc565b6040516100c0929190610b6b565b60405180910390f35b3480156100d557600080fd5b506100f060048036038101906100eb9190610bc0565b610200565b005b3480156100fe57600080fd5b506101076104f6565b005b6101116106ca565b005b34801561011f57600080fd5b5061012861088d565b6040516101359190610bed565b60405180910390f35b34801561014a57600080fd5b50610153610895565b6040516101609190610c17565b60405180910390f35b34801561017557600080fd5b5061017e6108b9565b60405161018b9190610bed565b60405180910390f35b61019c6108be565b005b3480156101aa57600080fd5b506101c560048036038101906101c09190610b25565b61094e565b6040516101d3929190610b6b565b60405180910390f35b60016020528060005260406000206000915090508060000154908060010154905082565b600260009054906101000a900460ff1615610250576040517f08c379a000000000000000000000000000000000000000000000000000000000815260040161024790610c8f565b60405180910390fd5b6001600260006101000a81548160ff021916908315150217905550600081116102ae576040517f08c379a00000000000000000000000000000000000000000000000000000000081526004016102a590610cfb565b60405180910390fd5b80600160003373ffffffffffffffffffffffffffffffffffffffff1673ffffffffffffffffffffffffffffffffffffffff168152602001908152602001600020600001541015610333576040517f08c379a000000000000000000000000000000000000000000000000000000000815260040161032a90610d67565b60405180910390fd5b61033c33610a10565b5080600160003373ffffffffffffffffffffffffffffffffffffffff1673ffffffffffffffffffffffffffffffffffffffff168152602001908152602001600020600001600082825461038f9190610db6565b9250508190555042600160003373ffffffffffffffffffffffffffffffffffffffff1673ffffffffffffffffffffffffffffffffffffffff1681526020019081526020016000206001018190555060003373ffffffffffffffffffffffffffffffffffffffff168260405161040390610e1b565b60006040518083038185875af1925050503d8060008114610440576040519150601f19603f3d011682016040523d82523d6000602084013e610445565b606091505b5050905080610489576040517f08c379a000000000000000000000000000000000000000000000000000000000815260040161048090610e7c565b60405180910390fd5b3373ffffffffffffffffffffffffffffffffffffffff167f7084f5476618d8e60b11ef0d7d3f06914655adb8793e28ff7f018d4c76d505d5836040516104cf9190610bed565b60405180910390a2506000600260006101000a81548160ff02191690831515021790555050565b600260009054906101000a900460ff1615610546576040517f08c379a000000000000000000000000000000000000000000000000000000000815260040161053d90610c8f565b60405180910390fd5b6001600260006101000a81548160ff021916908315150217905550600061056c33610a10565b9050600081116105b1576040517f08c379a00000000000000000000000000000000000000000000000000000000081526004016105a890610ee8565b60405180910390fd5b60003373ffffffffffffffffffffffffffffffffffffffff16826040516105d790610e1b565b60006040518083038185875af1925050503d8060008114610614576040519150601f19603f3d011682016040523d82523d6000602084013e610619565b606091505b505090508061065d576040517f08c379a000000000000000000000000000000000000000000000000000000000815260040161065490610e7c565b60405180910390fd5b3373ffffffffffffffffffffffffffffffffffffffff167ffc30cddea38e2bf4d6ea7d3f9ed3b6ad7f176419f4963bd81318067a4aee73fe836040516106a39190610bed565b60405180910390a250506000600260006101000a81548160ff021916908315150217905550565b600260009054906101000a900460ff161561071a576040517f08c379a000000000000000000000000000000000000000000000000000000000815260040161071190610c8f565b60405180910390fd5b6001600260006101000a81548160ff02191690831515021790555060003411610778576040517f08c379a000000000000000000000000000000000000000000000000000000000815260040161076f90610f54565b60405180910390fd5b61078133610a10565b5034600160003373ffffffffffffffffffffffffffffffffffffffff1673ffffffffffffffffffffffffffffffffffffffff16815260200190815260200160002060000160008282546107d49190610f74565b9250508190555042600160003373ffffffffffffffffffffffffffffffffffffffff1673ffffffffffffffffffffffffffffffffffffffff168152602001908152602001600020600101819055503373ffffffffffffffffffffffffffffffffffffffff167f9e71bc8eea02a63969f509818f2dafb9254532904319f9dbda79b67bd34a5f3d346040516108689190610bed565b60405180910390a26000600260006101000a81548160ff021916908315150217905550565b600047905090565b60008054906101000a900473ffffffffffffffffffffffffffffffffffffffff1681565b600581565b60008054906101000a900473ffffffffffffffffffffffffffffffffffffffff1673ffffffffffffffffffffffffffffffffffffffff163373ffffffffffffffffffffffffffffffffffffffff161461094c576040517f08c379a000000000000000000000000000000000000000000000000000000000815260040161094390610ff4565b60405180910390fd5b565b6000806000600160008573ffffffffffffffffffffffffffffffffffffffff1673ffffffffffffffffffffffffffffffffffffffff16815260200190815260200160002060405180604001604052908160008201548152602001600182015481525050905080600001519250600081600001511115610a0a5760008160200151426109d99190610db6565b905063bbf81e0081600584600001516109f29190611014565b6109fc9190611014565b610a069190611085565b9250505b50915091565b600080600160008473ffffffffffffffffffffffffffffffffffffffff1673ffffffffffffffffffffffffffffffffffffffff16815260200190815260200160002090506000816000015403610a6a576000915050610abd565b6000816001015442610a7c9190610db6565b9050600063bbf81e008260058560000154610a979190611014565b610aa19190611014565b610aab9190611085565b90504283600101819055508093505050505b919050565b600080fd5b600073ffffffffffffffffffffffffffffffffffffffff82169050919050565b6000610af282610ac7565b9050919050565b610b0281610ae7565b8114610b0d57600080fd5b50565b600081359050610b1f81610af9565b92915050565b600060208284031215610b3b57610b3a610ac2565b5b6000610b4984828501610b10565b91505092915050565b6000819050919050565b610b6581610b52565b82525050565b6000604082019050610b806000830185610b5c565b610b8d6020830184610b5c565b9392505050565b610b9d81610b52565b8114610ba857600080fd5b50565b600081359050610bba81610b94565b92915050565b600060208284031215610bd657610bd5610ac2565b5b6000610be484828501610bab565b91505092915050565b6000602082019050610c026000830184610b5c565b92915050565b610c1181610ae7565b82525050565b6000602082019050610c2c6000830184610c08565b92915050565b600082825260208201905092915050565b7f4e6f207265656e7472616e637900000000000000000000000000000000000000600082015250565b6000610c79600d83610c32565b9150610c8482610c43565b602082019050919050565b60006020820190508181036000830152610ca881610c6c565b9050919050565b7f43616e6e6f742077697468647261772030000000000000000000000000000000600082015250565b6000610ce5601183610c32565b9150610cf082610caf565b602082019050919050565b60006020820190508181036000830152610d1481610cd8565b9050919050565b7f496e73756666696369656e74207374616b650000000000000000000000000000600082015250565b6000610d51601283610c32565b9150610d5c82610d1b565b602082019050919050565b60006020820190508181036000830152610d8081610d44565b9050919050565b7f4e487b7100000000000000000000000000000000000000000000000000000000600052601160045260246000fd5b6000610dc182610b52565b9150610dcc83610b52565b9250828203905081811115610de457610de3610d87565b5b92915050565b600081905092915050565b50565b6000610e05600083610dea565b9150610e1082610df5565b600082019050919050565b6000610e2682610df8565b9150819050919050565b7f5472616e73666572206661696c65640000000000000000000000000000000000600082015250565b6000610e66600f83610c32565b9150610e7182610e30565b602082019050919050565b60006020820190508181036000830152610e9581610e59565b9050919050565b7f4e6f207265776172647320746f20636c61696d00000000000000000000000000600082015250565b6000610ed2601383610c32565b9150610edd82610e9c565b602082019050919050565b60006020820190508181036000830152610f0181610ec5565b9050919050565b7f43616e6e6f74207374616b652030000000000000000000000000000000000000600082015250565b6000610f3e600e83610c32565b9150610f4982610f08565b602082019050919050565b60006020820190508181036000830152610f6d81610f31565b9050919050565b6000610f7f82610b52565b9150610f8a83610b52565b9250828201905080821115610fa257610fa1610d87565b5b92915050565b7f4e6f74206f776e65720000000000000000000000000000000000000000000000600082015250565b6000610fde600983610c32565b9150610fe982610fa8565b602082019050919050565b6000602082019050818103600083015261100d81610fd1565b9050919050565b600061101f82610b52565b915061102a83610b52565b925082820261103881610b52565b9150828204841483151761104f5761104e610d87565b5b5092915050565b7f4e487b7100000000000000000000000000000000000000000000000000000000600052601260045260246000fd5b600061109082610b52565b915061109b83610b52565b9250826110ab576110aa611056565b5b82820490509291505056fea26469706673582212208424bee794f6456a3180b5f923b6183d6db670aa3a07e1ce93f0622c6c29ffe064736f6c634300081a0033",
    "linkReferences": {},
    "deployedLinkReferences": {}
}